S0190000536F6674776172652044656275676765722E737265637B
S11300000C942A000C9447000C9447000C9447006D
S11300100C9447000C9447000C9447000C94470040
S11300200C9447000C9447000C9447000C94DA009D
S11300300C9447000C9418010C9447000C9447004E
S11300400C9447000C9447000C9447000C94470010
S11300500C94470011241FBECFE5D4E0DEBFCDBF12
S113006010E0A0E6B0E0EEE7F3E002C005900D92E8
S1130070A436B107D9F720E0A4E6B0E001C01D9290
S1130080A837B207E1F70E9449000C94BD010C9413
S113009000000E94580078940E947B002FE38DE0BA
S11300A093E0215080409040E1F700C00000F4CF7D
S11300B0CF93DF9300D000D01F92CDB7DEB783E398
S11300C08A8319821B8288ED8C8386E88D83CE0116
S11300D001960E945001E4E6F0E08CE690E0119273
S11300E0E817F907E1F70F900F900F900F900F901A
S11300F0DF91CF910895EF92FF920F931F93CF93C7
S1130100DF9300D000D0CDB7DEB761E070E080E6C9
S113011090E00E945C010E947B018823E1F368E087
S113012070E084E690E00E946E010E9489018823B9
S1130130E1F304E610E0F80182818A8383818B83F2
S1130140CE0102960E9497017C01F80184818A8382
S113015085818B8386818C83CE0102960E949701D0
S11301608983F8019181973541F018F4923541F073
S113017010C0923729F0973761F4F701808309C0E2
S1130180F7018081898361E070E0CE0101960E94CD
S11301905C0161E070E082E690E00E945C010F90F7
S11301A00F900F900F90DF91CF911F910F91FF90BF
S11301B0EF9008951F920F920FB60F9211242F9370
S11301C03F934F935F938F939F93EF93FF93F89491
S11301D08CB140916C0050916D0020916E00309173
S11301E06F0042175307B0F48032A1F020916C00E5
S11301F030916D00E0917000F0917100E20FF31FF7
S1130200808380916C0090916D00019690936D00B5
S113021080936C007894FF91EF919F918F915F91FF
S11302204F913F912F910F900FBE0F901F901895F3
S11302301F920F920FB60F9211242F933F938F9317
S11302409F93EF93FF93F8948091720090917300C1
S11302500196909373008093720020917200309104
S1130260730080917400909175002817390760F429
S11302708091720090917300E0917600F091770084
S1130280E80FF91F80818CB97894FF91EF919F91C9
S11302908F913F912F910F900FBE0F901F90189543
S11302A0FC01808180BD818189B982818BB9838180
S11302B08AB9848180BD08959093770080937600F5
S11302C07093750060937400109273001092720022
S11302D05D9BFECFFC0180818CB9089590937100E1
S11302E08093700070936F0060936E0010926D00A5
S11302F010926C0008954091720050917300209107
S113030074003091750081E04217530708F480E0CF
S1130310089540916C0050916D0020916E003091D1
S11303206F0081E04217530708F480E00895FC0150
S113033088279927E89421912032E9F3293010F095
S11303402E30C8F32B3241F02D3239F4689404C0B6
S11303500E94B501820F911D219120532A30C0F3D0
S11303601EF4909581959F4F08957AE0979F902D64
S1110370879F802D910D11240895F894FFCFDE
S107037E3E000D002C
S9030000FC
