S01900004578706572696D656E74204F6E652043492E73726563FC
S11300000C942A000C9434000C9434000C943400A6
S11300100C9434000C9434000C9434000C9434008C
S11300200C9434000C9434000C9434000C9434007C
S11300300C9434000C9434000C9434000C9434006C
S11300400C9434000C9434000C9434000C9434005C
S11300500C94340011241FBECFE5D4E0DEBFCDBF25
S11300600E9496000C9460020C94000012BE8CBF97
S113007087B3886087BB8AE683BF0895CF92DF92F7
S1130080EF92FF922FE936E891E021503040904002
S1130090E1F700C000008F3FB9F0682F70E080E006
S11300A090E00E9467016B017C0120E030E040E0B9
S11300B05FE30E94F3019B01AC01C701B6010E94FA
S11300C0CA000E943601862F8CBFFF90EF90DF900C
S11300D0CF900895CF92DF92EF92FF922FE936E806
S11300E091E0215030409040E1F700C000008823A7
S11300F0B9F0682F70E080E090E00E9467016B0126
S11301007C0120E030E040E05FE30E94F3019B01CA
S1130110AC01C701B6010E94C9000E943601862FB6
S11301208CBFFF90EF90DF90CF90089580E80E94FD
S113013036008AB3887F8ABB84B3836084BB85B36B
S11301408C7F85BBC89B07C085B38E7F85BB85B379
S1130150826085BBF7CFC99B07C085B3816085BB2F
S113016085B38D7F85BBEECFCA9B07C085B38E7FD9
S113017085BB85B38D7F85BBE5CFCB9B04C080E871
S11301800E943E00DFCFCC9BDDCF80E80E946A0056
S1130190D9CF5058BB27AA270E94E1000C94B9017B
S11301A00E94AB0138F00E94B20120F039F49F3F65
S11301B019F426F40C94A8010EF4E095E7FB0C94D2
S11301C0A201E92F0E94CA0158F3BA176207730704
S11301D08407950720F079F4A6F50C94EC010EF44D
S11301E0E0950B2EBA2FA02D0B01B90190010C0143
S11301F0CA01A0011124FF27591B99F0593F50F45B
S1130200503E68F11A16F040A22F232F342F4427B2
S1130210585FF3CF469537952795A795F0405395AA
S1130220C9F77EF41F16BA0B620B730B840BBAF07A
S11302309150A1F0FF0FBB1F661F771F881FC2F7E5
S11302400EC0BA0F621F731F841F48F487957795F9
S11302506795B795F7959E3F08F0B0CF9395880FB3
S113026008F09927EE0F9795879508950E94D2017B
S113027088F09F5798F0B92F9927B751B0F0E1F063
S1130280660F771F881F991F1AF0BA95C9F714C013
S1130290B13091F00E94EC01B1E008950C94EC01AE
S11302A0672F782F8827B85F39F0B93FCCF386954C
S11302B077956795B395D9F73EF4909580957095A9
S11302C061957F4F8F4F9F4F0895E89409C097FB26
S11302D03EF490958095709561957F4F8F4F9F4F19
S11302E09923A9F0F92F96E9BB279395F69587955D
S11302F077956795B795F111F8CFFAF4BB0F11F420
S113030060FF1BC06F5F7F4F8F4F9F4F16C08823C6
S113031011F096E911C0772321F09EE8872F762FFC
S113032005C0662371F096E8862F70E060E02AF03D
S11303309A95660F771F881FDAF7880F9695879529
S113034097F9089597F99F6780E870E060E0089551
S11303509FEF80EC089500240A94161617061806D9
S11303600906089500240A941216130614060506B5
S11303700895092E0394000C11F4882352F0BB0F46
S113038040F4BF2B11F460FF04C06F5F7F4F8F4FA9
S11303909F4F089557FD9058440F551F59F05F3FE4
S11303A071F04795880F97FB991F61F09F3F79F093
S11303B087950895121613061406551FF2CF469515
S11303C0F1DF08C0161617061806991FF1CF869597
S11303D07105610508940895E894BB27662777277B
S11303E0CB0197F908950E9406020C94B9010E946A
S11303F0AB0138F00E94B20120F0952311F00C9467
S1130400A2010C94A80111240C94ED010E94CA01CC
S113041070F3959FC1F3950F50E0551F629FF00153
S1130420729FBB27F00DB11D639FAA27F00DB11D6C
S1130430AA1F649F6627B00DA11D661F829F2227F5
S1130440B00DA11D621F739FB00DA11D621F839F7C
S1130450A00D611D221F749F3327A00D611D231F52
S1130460849F600D211D822F762F6A2F11249F57A0
S113047050409AF0F1F088234AF0EE0FFF1FBB1FA3
S1130480661F771F881F91505040A9F79E3F510562
S113049080F00C94A2010C94ED015F3FE4F3983ECC
S11304A0D4F3869577956795B795F795E7959F5F0C
S11304B0C1F7FE2B880F911D9695879597F908959E
S10704C0F894FFCFDA
S9030000FC
