S0190000536F6674776172652044656275676765722E737265637B
S11300000C942A000C9447000C9447000C9447006D
S11300100C9447000C9447000C9447000C94470040
S11300200C9447000C9447000C9447000C94D600A1
S11300300C9447000C9412010C9447000C94470054
S11300400C9447000C9447000C9447000C94470010
S11300500C94470011241FBECFE5D4E0DEBFCDBF12
S113006010E0A0E6B0E0E2E7F3E002C005900D92F4
S1130070A436B107D9F720E0A4E6B0E001C01D9290
S1130080A837B207E1F70E9449000C94B7010C9419
S113009000000E94580078940E947A002FE38DE0BB
S11300A093E0215080409040E1F700C00000F4CF7D
S11300B0CF93DF9300D000D01F92CDB7DEB783E398
S11300C08A8319821B8288ED8C8386E88D83CE0116
S11300D001960E944A01E4E6F0E0119280E0EC36D9
S11300E0F807D9F70F900F900F900F900F90DF91B2
S11300F0CF9108950F931F93CF93DF9300D000D037
S1130100CDB7DEB761E070E080E690E00E94560172
S11301100E9475018823E1F368E070E084E690E0D2
S11301200E9468010E9483018823E1F380916600A4
S11301308983809167008A83CE0101960E94910190
S11301408C01809168008983809169008A83809101
S11301506A008B83CE0101960E9491018C83909159
S11301606500973541F018F4923541F010C092378C
S113017029F0973761F4F801808309C0F801808180
S11301808C8361E070E0CE0104960E94560161E028
S113019070E082E690E00E9456010F900F900F905D
S11301A00F90DF91CF911F910F9108951F920F929D
S11301B00FB60F9211242F934F935F938F939F93B6
S11301C0EF93FF93F8942CB140916C0050916D0023
S11301D080916E0090916F0048175907B0F4203257
S11301E0A1F080916C0090916D00E0917000F0910D
S11301F07100E80FF91F208380916C0090916D00CD
S1130200019690936D0080936C007894FF91EF9128
S11302109F918F915F914F912F910F900FBE0F90EF
S11302201F9018951F920F920FB60F9211242F93BF
S11302303F938F939F93EF93FF93F8948091720071
S113024090917300019690937300809372002091B3
S1130250720030917300809174009091750028179A
S1130260390760F48091720090917300E0917600F8
S1130270F0917700E80FF91F80818CB97894FF9191
S1130280EF919F918F913F912F910F900FBE0F90FF
S11302901F901895FC01808180BD818189B982817C
S11302A08BB983818AB9848180BD08959093770046
S11302B080937600709375006093740010927300BD
S11302C0109272005D9BFECFFC0180818CB9089571
S11302D0909371008093700070936F0060936E0030
S11302E010926D0010926C0008954091720050912C
S11302F07300209174003091750081E04217530718
S113030008F480E0089540916C0050916D002091B4
S11303106E0030916F0081E04217530708F480E0CB
S11303200895FC0188279927E89421912032E9F364
S1130330293010F02E30C8F32B3241F02D3239F42D
S1130340689404C00E94AF01820F911D2191205333
S11303502A30C0F31EF4909581959F4F08957AE05A
S1130360979F902D879F802D910D11240895F894C7
S1050370FFCFB9
S10703723E000D0038
S9030000FC
